{
  "_format": "hh-sol-artifact-1",
  "contractName": "FileFly",
  "sourceName": "contracts/FileFly.sol",
  "abi": [
    {
      "inputs": [],
      "stateMutability": "nonpayable",
      "type": "constructor"
    },
    {
      "inputs": [
        {
          "internalType": "address",
          "name": "_addr",
          "type": "address"
        },
        {
          "internalType": "string",
          "name": "_name",
          "type": "string"
        }
      ],
      "name": "addAdmin",
      "outputs": [],
      "stateMutability": "nonpayable",
      "type": "function"
    },
    {
      "inputs": [
        {
          "internalType": "string",
          "name": "_comment",
          "type": "string"
        },
        {
          "internalType": "string",
          "name": "_file_link",
          "type": "string"
        },
        {
          "internalType": "string",
          "name": "date_time",
          "type": "string"
        }
      ],
      "name": "addComment",
      "outputs": [],
      "stateMutability": "nonpayable",
      "type": "function"
    },
    {
      "inputs": [
        {
          "internalType": "string",
          "name": "_link",
          "type": "string"
        },
        {
          "internalType": "string",
          "name": "_name",
          "type": "string"
        },
        {
          "internalType": "string",
          "name": "_description",
          "type": "string"
        },
        {
          "internalType": "string",
          "name": "_label",
          "type": "string"
        },
        {
          "internalType": "string",
          "name": "_uploaded_on",
          "type": "string"
        },
        {
          "internalType": "string",
          "name": "_id",
          "type": "string"
        }
      ],
      "name": "addFile",
      "outputs": [],
      "stateMutability": "nonpayable",
      "type": "function"
    },
    {
      "inputs": [],
      "name": "adminCount",
      "outputs": [
        {
          "internalType": "uint256",
          "name": "",
          "type": "uint256"
        }
      ],
      "stateMutability": "view",
      "type": "function"
    },
    {
      "inputs": [
        {
          "internalType": "uint256",
          "name": "",
          "type": "uint256"
        }
      ],
      "name": "admins",
      "outputs": [
        {
          "internalType": "address",
          "name": "addr",
          "type": "address"
        },
        {
          "internalType": "string",
          "name": "name",
          "type": "string"
        },
        {
          "internalType": "bool",
          "name": "access",
          "type": "bool"
        },
        {
          "internalType": "uint256",
          "name": "index",
          "type": "uint256"
        }
      ],
      "stateMutability": "view",
      "type": "function"
    },
    {
      "inputs": [],
      "name": "commentCount",
      "outputs": [
        {
          "internalType": "uint256",
          "name": "",
          "type": "uint256"
        }
      ],
      "stateMutability": "view",
      "type": "function"
    },
    {
      "inputs": [
        {
          "internalType": "uint256",
          "name": "",
          "type": "uint256"
        }
      ],
      "name": "comments",
      "outputs": [
        {
          "internalType": "address",
          "name": "user",
          "type": "address"
        },
        {
          "internalType": "string",
          "name": "comment",
          "type": "string"
        },
        {
          "internalType": "string",
          "name": "file_link",
          "type": "string"
        },
        {
          "internalType": "string",
          "name": "date_time",
          "type": "string"
        }
      ],
      "stateMutability": "view",
      "type": "function"
    },
    {
      "inputs": [
        {
          "internalType": "uint256",
          "name": "_index",
          "type": "uint256"
        }
      ],
      "name": "deleteFile",
      "outputs": [],
      "stateMutability": "nonpayable",
      "type": "function"
    },
    {
      "inputs": [
        {
          "internalType": "uint256",
          "name": "_index",
          "type": "uint256"
        },
        {
          "internalType": "string",
          "name": "_name",
          "type": "string"
        },
        {
          "internalType": "string",
          "name": "_description",
          "type": "string"
        },
        {
          "internalType": "string",
          "name": "_label",
          "type": "string"
        },
        {
          "internalType": "string",
          "name": "_updated_on",
          "type": "string"
        }
      ],
      "name": "editFile",
      "outputs": [],
      "stateMutability": "nonpayable",
      "type": "function"
    },
    {
      "inputs": [],
      "name": "fileCount",
      "outputs": [
        {
          "internalType": "uint256",
          "name": "",
          "type": "uint256"
        }
      ],
      "stateMutability": "view",
      "type": "function"
    },
    {
      "inputs": [
        {
          "internalType": "uint256",
          "name": "",
          "type": "uint256"
        }
      ],
      "name": "files",
      "outputs": [
        {
          "internalType": "string",
          "name": "link",
          "type": "string"
        },
        {
          "internalType": "address payable",
          "name": "user",
          "type": "address"
        },
        {
          "internalType": "string",
          "name": "name",
          "type": "string"
        },
        {
          "internalType": "string",
          "name": "description",
          "type": "string"
        },
        {
          "internalType": "string",
          "name": "uploaded_on",
          "type": "string"
        },
        {
          "internalType": "string",
          "name": "updated_on",
          "type": "string"
        },
        {
          "internalType": "string",
          "name": "label",
          "type": "string"
        },
        {
          "internalType": "uint256",
          "name": "index",
          "type": "uint256"
        },
        {
          "internalType": "bool",
          "name": "deleted",
          "type": "bool"
        },
        {
          "internalType": "uint256",
          "name": "likes",
          "type": "uint256"
        },
        {
          "internalType": "string",
          "name": "id",
          "type": "string"
        }
      ],
      "stateMutability": "view",
      "type": "function"
    },
    {
      "inputs": [
        {
          "internalType": "address",
          "name": "_addr",
          "type": "address"
        }
      ],
      "name": "isAdmin",
      "outputs": [
        {
          "internalType": "bool",
          "name": "",
          "type": "bool"
        }
      ],
      "stateMutability": "view",
      "type": "function"
    },
    {
      "inputs": [
        {
          "internalType": "address",
          "name": "_addr",
          "type": "address"
        }
      ],
      "name": "isOwner",
      "outputs": [
        {
          "internalType": "bool",
          "name": "",
          "type": "bool"
        }
      ],
      "stateMutability": "view",
      "type": "function"
    },
    {
      "inputs": [
        {
          "internalType": "uint256",
          "name": "_index",
          "type": "uint256"
        }
      ],
      "name": "likeFile",
      "outputs": [],
      "stateMutability": "payable",
      "type": "function"
    },
    {
      "inputs": [],
      "name": "ownerCount",
      "outputs": [
        {
          "internalType": "uint256",
          "name": "",
          "type": "uint256"
        }
      ],
      "stateMutability": "view",
      "type": "function"
    },
    {
      "inputs": [
        {
          "internalType": "uint256",
          "name": "",
          "type": "uint256"
        }
      ],
      "name": "owners",
      "outputs": [
        {
          "internalType": "address",
          "name": "addr",
          "type": "address"
        },
        {
          "internalType": "string",
          "name": "name",
          "type": "string"
        }
      ],
      "stateMutability": "view",
      "type": "function"
    },
    {
      "inputs": [
        {
          "internalType": "uint256",
          "name": "_index",
          "type": "uint256"
        }
      ],
      "name": "removeAdmin",
      "outputs": [],
      "stateMutability": "nonpayable",
      "type": "function"
    }
  ],
  "bytecode": "0x6080604052600080556000600255600060045560006006553480156200002457600080fd5b50600260008154809291906200003a9062000221565b9190505550600360405180604001604052803373ffffffffffffffffffffffffffffffffffffffff1681526020016040518060400160405280600d81526020017f46696c65466c792041646d696e00000000000000000000000000000000000000815250815250908060018154018082558091505060019003906000526020600020906002020160009091909190915060008201518160000160006101000a81548173ffffffffffffffffffffffffffffffffffffffff021916908373ffffffffffffffffffffffffffffffffffffffff16021790555060208201518160010190805190602001906200012f92919062000138565b505050620002d4565b82805462000146906200029e565b90600052602060002090601f0160209004810192826200016a5760008555620001b6565b82601f106200018557805160ff1916838001178555620001b6565b82800160010185558215620001b6579182015b82811115620001b557825182559160200191906001019062000198565b5b509050620001c59190620001c9565b5090565b5b80821115620001e4576000816000905550600101620001ca565b5090565b7f4e487b7100000000000000000000000000000000000000000000000000000000600052601160045260246000fd5b6000819050919050565b60006200022e8262000217565b91507fffffffffffffffffffffffffffffffffffffffffffffffffffffffffffffffff821415620002645762000263620001e8565b5b600182019050919050565b7f4e487b7100000000000000000000000000000000000000000000000000000000600052602260045260246000fd5b60006002820490506001821680620002b757607f821691505b60208210811415620002ce57620002cd6200026f565b5b50919050565b61287880620002e46000396000f3fe6080604052600436106100fe5760003560e01c806345ff20de11610095578063ad7bbc2911610064578063ad7bbc2914610355578063ada4ae381461037e578063c5b42006146103a7578063d16856ca146103d0578063f4c714b4146103f9576100fe565b806345ff20de146102a55780635ee9ab1f146102d05780638331ac88146102f95780638ebb4c1514610315576100fe565b80632b7832b3116100d15780632b7832b3146101e95780632f54bf6e1461021457806339b92d1714610251578063439535191461027a576100fe565b8063025e7c27146101035780630db026221461014157806314bfd6d01461016c57806324d7806c146101ac575b600080fd5b34801561010f57600080fd5b5061012a60048036038101906101259190611d79565b610440565b604051610138929190611e80565b60405180910390f35b34801561014d57600080fd5b5061015661051c565b6040516101639190611ebf565b60405180910390f35b34801561017857600080fd5b50610193600480360381019061018e9190611d79565b610522565b6040516101a39493929190611ef5565b60405180910390f35b3480156101b857600080fd5b506101d360048036038101906101ce9190611f6d565b610617565b6040516101e09190611f9a565b60405180910390f35b3480156101f557600080fd5b506101fe610705565b60405161020b9190611ebf565b60405180910390f35b34801561022057600080fd5b5061023b60048036038101906102369190611f6d565b61070b565b6040516102489190611f9a565b60405180910390f35b34801561025d57600080fd5b50610278600480360381019061027391906120ea565b6107be565b005b34801561028657600080fd5b5061028f6108dc565b60405161029c9190611ebf565b60405180910390f35b3480156102b157600080fd5b506102ba6108e2565b6040516102c79190611ebf565b60405180910390f35b3480156102dc57600080fd5b506102f760048036038101906102f29190612191565b6108e8565b005b610313600480360381019061030e9190611d79565b610b2d565b005b34801561032157600080fd5b5061033c60048036038101906103379190611d79565b610c42565b60405161034c94939291906122c6565b60405180910390f35b34801561036157600080fd5b5061037c60048036038101906103779190611d79565b610e3a565b005b34801561038a57600080fd5b506103a560048036038101906103a09190612320565b610ec3565b005b3480156103b357600080fd5b506103ce60048036038101906103c99190611d79565b611513565b005b3480156103dc57600080fd5b506103f760048036038101906103f2919061240b565b611670565b005b34801561040557600080fd5b50610420600480360381019061041b9190611d79565b6117cb565b6040516104379b9a99989796959493929190612488565b60405180910390f35b6003818154811061045057600080fd5b90600052602060002090600202016000915090508060000160009054906101000a900473ffffffffffffffffffffffffffffffffffffffff169080600101805461049990612593565b80601f01602080910402602001604051908101604052809291908181526020018280546104c590612593565b80156105125780601f106104e757610100808354040283529160200191610512565b820191906000526020600020905b8154815290600101906020018083116104f557829003601f168201915b5050505050905082565b60025481565b6005818154811061053257600080fd5b90600052602060002090600402016000915090508060000160009054906101000a900473ffffffffffffffffffffffffffffffffffffffff169080600101805461057b90612593565b80601f01602080910402602001604051908101604052809291908181526020018280546105a790612593565b80156105f45780601f106105c9576101008083540402835291602001916105f4565b820191906000526020600020905b8154815290600101906020018083116105d757829003601f168201915b5050505050908060020160009054906101000a900460ff16908060030154905084565b600080600090505b6004548110156106fa576005818154811061063d5761063c6125c5565b5b906000526020600020906004020160000160009054906101000a900473ffffffffffffffffffffffffffffffffffffffff1673ffffffffffffffffffffffffffffffffffffffff168373ffffffffffffffffffffffffffffffffffffffff161480156106d85750600581815481106106b8576106b76125c5565b5b906000526020600020906004020160020160009054906101000a900460ff165b156106e7576001915050610700565b80806106f290612623565b91505061061f565b50600090505b919050565b60045481565b600080600090505b6002548110156107b35760038181548110610731576107306125c5565b5b906000526020600020906002020160000160009054906101000a900473ffffffffffffffffffffffffffffffffffffffff1673ffffffffffffffffffffffffffffffffffffffff168373ffffffffffffffffffffffffffffffffffffffff1614156107a05760019150506107b9565b80806107ab90612623565b915050610713565b50600090505b919050565b600160405180608001604052803373ffffffffffffffffffffffffffffffffffffffff16815260200185815260200184815260200183815250908060018154018082558091505060019003906000526020600020906004020160009091909190915060008201518160000160006101000a81548173ffffffffffffffffffffffffffffffffffffffff021916908373ffffffffffffffffffffffffffffffffffffffff1602179055506020820151816001019080519060200190610883929190611c1a565b5060408201518160020190805190602001906108a0929190611c1a565b5060608201518160030190805190602001906108bd929190611c1a565b5050506000808154809291906108d290612623565b9190505550505050565b60065481565b60005481565b6108f0611ca0565b33816020019073ffffffffffffffffffffffffffffffffffffffff16908173ffffffffffffffffffffffffffffffffffffffff1681525050868160000181905250858160400181905250848160600181905250828160800181905250838160c001819052506000816101000190151590811515815250506006548160e0018181525050604051806020016040528060008152508160a001819052508181610140018190525060078190806001815401808255809150506001900390600052602060002090600b020160009091909190915060008201518160000190805190602001906109dd929190611c1a565b5060208201518160010160006101000a81548173ffffffffffffffffffffffffffffffffffffffff021916908373ffffffffffffffffffffffffffffffffffffffff1602179055506040820151816002019080519060200190610a41929190611c1a565b506060820151816003019080519060200190610a5e929190611c1a565b506080820151816004019080519060200190610a7b929190611c1a565b5060a0820151816005019080519060200190610a98929190611c1a565b5060c0820151816006019080519060200190610ab5929190611c1a565b5060e082015181600701556101008201518160080160006101000a81548160ff021916908315150217905550610120820151816009015561014082015181600a019080519060200190610b09929190611c1a565b50505060066000815480929190610b1f90612623565b919050555050505050505050565b670de0b6b3a7640000341015610b78576040517f08c379a0000000000000000000000000000000000000000000000000000000008152600401610b6f906126b8565b60405180910390fd5b60078181548110610b8c57610b8b6125c5565b5b90600052602060002090600b020160010160009054906101000a900473ffffffffffffffffffffffffffffffffffffffff1673ffffffffffffffffffffffffffffffffffffffff166108fc349081150290604051600060405180830381858888f19350505050158015610c03573d6000803e3d6000fd5b5060078181548110610c1857610c176125c5565b5b90600052602060002090600b02016009016000815480929190610c3a90612623565b919050555050565b60018181548110610c5257600080fd5b90600052602060002090600402016000915090508060000160009054906101000a900473ffffffffffffffffffffffffffffffffffffffff1690806001018054610c9b90612593565b80601f0160208091040260200160405190810160405280929190818152602001828054610cc790612593565b8015610d145780601f10610ce957610100808354040283529160200191610d14565b820191906000526020600020905b815481529060010190602001808311610cf757829003601f168201915b505050505090806002018054610d2990612593565b80601f0160208091040260200160405190810160405280929190818152602001828054610d5590612593565b8015610da25780601f10610d7757610100808354040283529160200191610da2565b820191906000526020600020905b815481529060010190602001808311610d8557829003601f168201915b505050505090806003018054610db790612593565b80601f0160208091040260200160405190810160405280929190818152602001828054610de390612593565b8015610e305780601f10610e0557610100808354040283529160200191610e30565b820191906000526020600020905b815481529060010190602001808311610e1357829003601f168201915b5050505050905084565b610e433361070b565b610e82576040517f08c379a0000000000000000000000000000000000000000000000000000000008152600401610e7990612724565b60405180910390fd5b600060058281548110610e9857610e976125c5565b5b906000526020600020906004020160020160006101000a81548160ff02191690831515021790555050565b600060078681548110610ed957610ed86125c5565b5b90600052602060002090600b020160405180610160016040529081600082018054610f0390612593565b80601f0160208091040260200160405190810160405280929190818152602001828054610f2f90612593565b8015610f7c5780601f10610f5157610100808354040283529160200191610f7c565b820191906000526020600020905b815481529060010190602001808311610f5f57829003601f168201915b505050505081526020016001820160009054906101000a900473ffffffffffffffffffffffffffffffffffffffff1673ffffffffffffffffffffffffffffffffffffffff1673ffffffffffffffffffffffffffffffffffffffff168152602001600282018054610feb90612593565b80601f016020809104026020016040519081016040528092919081815260200182805461101790612593565b80156110645780601f1061103957610100808354040283529160200191611064565b820191906000526020600020905b81548152906001019060200180831161104757829003601f168201915b5050505050815260200160038201805461107d90612593565b80601f01602080910402602001604051908101604052809291908181526020018280546110a990612593565b80156110f65780601f106110cb576101008083540402835291602001916110f6565b820191906000526020600020905b8154815290600101906020018083116110d957829003601f168201915b5050505050815260200160048201805461110f90612593565b80601f016020809104026020016040519081016040528092919081815260200182805461113b90612593565b80156111885780601f1061115d57610100808354040283529160200191611188565b820191906000526020600020905b81548152906001019060200180831161116b57829003601f168201915b505050505081526020016005820180546111a190612593565b80601f01602080910402602001604051908101604052809291908181526020018280546111cd90612593565b801561121a5780601f106111ef5761010080835404028352916020019161121a565b820191906000526020600020905b8154815290600101906020018083116111fd57829003601f168201915b5050505050815260200160068201805461123390612593565b80601f016020809104026020016040519081016040528092919081815260200182805461125f90612593565b80156112ac5780601f10611281576101008083540402835291602001916112ac565b820191906000526020600020905b81548152906001019060200180831161128f57829003601f168201915b50505050508152602001600782015481526020016008820160009054906101000a900460ff1615151515815260200160098201548152602001600a820180546112f490612593565b80601f016020809104026020016040519081016040528092919081815260200182805461132090612593565b801561136d5780601f106113425761010080835404028352916020019161136d565b820191906000526020600020905b81548152906001019060200180831161135057829003601f168201915b5050505050815250509050848160400181905250838160600181905250828160c00181905250818160a0018190525080600787815481106113b1576113b06125c5565b5b90600052602060002090600b020160008201518160000190805190602001906113db929190611c1a565b5060208201518160010160006101000a81548173ffffffffffffffffffffffffffffffffffffffff021916908373ffffffffffffffffffffffffffffffffffffffff160217905550604082015181600201908051906020019061143f929190611c1a565b50606082015181600301908051906020019061145c929190611c1a565b506080820151816004019080519060200190611479929190611c1a565b5060a0820151816005019080519060200190611496929190611c1a565b5060c08201518160060190805190602001906114b3929190611c1a565b5060e082015181600701556101008201518160080160006101000a81548160ff021916908315150217905550610120820151816009015561014082015181600a019080519060200190611507929190611c1a565b50905050505050505050565b61151c33610617565b8061152c575061152b3361070b565b5b806115a757503373ffffffffffffffffffffffffffffffffffffffff166007828154811061155d5761155c6125c5565b5b90600052602060002090600b020160010160009054906101000a900473ffffffffffffffffffffffffffffffffffffffff1673ffffffffffffffffffffffffffffffffffffffff16145b6115e6576040517f08c379a00000000000000000000000000000000000000000000000000000000081526004016115dd906127b6565b60405180910390fd5b604051806020016040528060008152506007828154811061160a576116096125c5565b5b90600052602060002090600b0201600001908051906020019061162e929190611c1a565b50600160078281548110611645576116446125c5565b5b90600052602060002090600b020160080160006101000a81548160ff02191690831515021790555050565b6116793361070b565b6116b8576040517f08c379a00000000000000000000000000000000000000000000000000000000081526004016116af90612822565b60405180910390fd5b600560405180608001604052808473ffffffffffffffffffffffffffffffffffffffff168152602001838152602001600115158152602001600454815250908060018154018082558091505060019003906000526020600020906004020160009091909190915060008201518160000160006101000a81548173ffffffffffffffffffffffffffffffffffffffff021916908373ffffffffffffffffffffffffffffffffffffffff1602179055506020820151816001019080519060200190611782929190611c1a565b5060408201518160020160006101000a81548160ff021916908315150217905550606082015181600301555050600460008154809291906117c290612623565b91905055505050565b600781815481106117db57600080fd5b90600052602060002090600b02016000915090508060000180546117fe90612593565b80601f016020809104026020016040519081016040528092919081815260200182805461182a90612593565b80156118775780601f1061184c57610100808354040283529160200191611877565b820191906000526020600020905b81548152906001019060200180831161185a57829003601f168201915b5050505050908060010160009054906101000a900473ffffffffffffffffffffffffffffffffffffffff16908060020180546118b290612593565b80601f01602080910402602001604051908101604052809291908181526020018280546118de90612593565b801561192b5780601f106119005761010080835404028352916020019161192b565b820191906000526020600020905b81548152906001019060200180831161190e57829003601f168201915b50505050509080600301805461194090612593565b80601f016020809104026020016040519081016040528092919081815260200182805461196c90612593565b80156119b95780601f1061198e576101008083540402835291602001916119b9565b820191906000526020600020905b81548152906001019060200180831161199c57829003601f168201915b5050505050908060040180546119ce90612593565b80601f01602080910402602001604051908101604052809291908181526020018280546119fa90612593565b8015611a475780601f10611a1c57610100808354040283529160200191611a47565b820191906000526020600020905b815481529060010190602001808311611a2a57829003601f168201915b505050505090806005018054611a5c90612593565b80601f0160208091040260200160405190810160405280929190818152602001828054611a8890612593565b8015611ad55780601f10611aaa57610100808354040283529160200191611ad5565b820191906000526020600020905b815481529060010190602001808311611ab857829003601f168201915b505050505090806006018054611aea90612593565b80601f0160208091040260200160405190810160405280929190818152602001828054611b1690612593565b8015611b635780601f10611b3857610100808354040283529160200191611b63565b820191906000526020600020905b815481529060010190602001808311611b4657829003601f168201915b5050505050908060070154908060080160009054906101000a900460ff169080600901549080600a018054611b9790612593565b80601f0160208091040260200160405190810160405280929190818152602001828054611bc390612593565b8015611c105780601f10611be557610100808354040283529160200191611c10565b820191906000526020600020905b815481529060010190602001808311611bf357829003601f168201915b505050505090508b565b828054611c2690612593565b90600052602060002090601f016020900481019282611c485760008555611c8f565b82601f10611c6157805160ff1916838001178555611c8f565b82800160010185558215611c8f579182015b82811115611c8e578251825591602001919060010190611c73565b5b509050611c9c9190611d12565b5090565b60405180610160016040528060608152602001600073ffffffffffffffffffffffffffffffffffffffff16815260200160608152602001606081526020016060815260200160608152602001606081526020016000815260200160001515815260200160008152602001606081525090565b5b80821115611d2b576000816000905550600101611d13565b5090565b6000604051905090565b600080fd5b600080fd5b6000819050919050565b611d5681611d43565b8114611d6157600080fd5b50565b600081359050611d7381611d4d565b92915050565b600060208284031215611d8f57611d8e611d39565b5b6000611d9d84828501611d64565b91505092915050565b600073ffffffffffffffffffffffffffffffffffffffff82169050919050565b6000611dd182611da6565b9050919050565b611de181611dc6565b82525050565b600081519050919050565b600082825260208201905092915050565b60005b83811015611e21578082015181840152602081019050611e06565b83811115611e30576000848401525b50505050565b6000601f19601f8301169050919050565b6000611e5282611de7565b611e5c8185611df2565b9350611e6c818560208601611e03565b611e7581611e36565b840191505092915050565b6000604082019050611e956000830185611dd8565b8181036020830152611ea78184611e47565b90509392505050565b611eb981611d43565b82525050565b6000602082019050611ed46000830184611eb0565b92915050565b60008115159050919050565b611eef81611eda565b82525050565b6000608082019050611f0a6000830187611dd8565b8181036020830152611f1c8186611e47565b9050611f2b6040830185611ee6565b611f386060830184611eb0565b95945050505050565b611f4a81611dc6565b8114611f5557600080fd5b50565b600081359050611f6781611f41565b92915050565b600060208284031215611f8357611f82611d39565b5b6000611f9184828501611f58565b91505092915050565b6000602082019050611faf6000830184611ee6565b92915050565b600080fd5b600080fd5b7f4e487b7100000000000000000000000000000000000000000000000000000000600052604160045260246000fd5b611ff782611e36565b810181811067ffffffffffffffff8211171561201657612015611fbf565b5b80604052505050565b6000612029611d2f565b90506120358282611fee565b919050565b600067ffffffffffffffff82111561205557612054611fbf565b5b61205e82611e36565b9050602081019050919050565b82818337600083830152505050565b600061208d6120888461203a565b61201f565b9050828152602081018484840111156120a9576120a8611fba565b5b6120b484828561206b565b509392505050565b600082601f8301126120d1576120d0611fb5565b5b81356120e184826020860161207a565b91505092915050565b60008060006060848603121561210357612102611d39565b5b600084013567ffffffffffffffff81111561212157612120611d3e565b5b61212d868287016120bc565b935050602084013567ffffffffffffffff81111561214e5761214d611d3e565b5b61215a868287016120bc565b925050604084013567ffffffffffffffff81111561217b5761217a611d3e565b5b612187868287016120bc565b9150509250925092565b60008060008060008060c087890312156121ae576121ad611d39565b5b600087013567ffffffffffffffff8111156121cc576121cb611d3e565b5b6121d889828a016120bc565b965050602087013567ffffffffffffffff8111156121f9576121f8611d3e565b5b61220589828a016120bc565b955050604087013567ffffffffffffffff81111561222657612225611d3e565b5b61223289828a016120bc565b945050606087013567ffffffffffffffff81111561225357612252611d3e565b5b61225f89828a016120bc565b935050608087013567ffffffffffffffff8111156122805761227f611d3e565b5b61228c89828a016120bc565b92505060a087013567ffffffffffffffff8111156122ad576122ac611d3e565b5b6122b989828a016120bc565b9150509295509295509295565b60006080820190506122db6000830187611dd8565b81810360208301526122ed8186611e47565b905081810360408301526123018185611e47565b905081810360608301526123158184611e47565b905095945050505050565b600080600080600060a0868803121561233c5761233b611d39565b5b600061234a88828901611d64565b955050602086013567ffffffffffffffff81111561236b5761236a611d3e565b5b612377888289016120bc565b945050604086013567ffffffffffffffff81111561239857612397611d3e565b5b6123a4888289016120bc565b935050606086013567ffffffffffffffff8111156123c5576123c4611d3e565b5b6123d1888289016120bc565b925050608086013567ffffffffffffffff8111156123f2576123f1611d3e565b5b6123fe888289016120bc565b9150509295509295909350565b6000806040838503121561242257612421611d39565b5b600061243085828601611f58565b925050602083013567ffffffffffffffff81111561245157612450611d3e565b5b61245d858286016120bc565b9150509250929050565b600061247282611da6565b9050919050565b61248281612467565b82525050565b60006101608201905081810360008301526124a3818e611e47565b90506124b2602083018d612479565b81810360408301526124c4818c611e47565b905081810360608301526124d8818b611e47565b905081810360808301526124ec818a611e47565b905081810360a08301526125008189611e47565b905081810360c08301526125148188611e47565b905061252360e0830187611eb0565b612531610100830186611ee6565b61253f610120830185611eb0565b8181036101408301526125528184611e47565b90509c9b505050505050505050505050565b7f4e487b7100000000000000000000000000000000000000000000000000000000600052602260045260246000fd5b600060028204905060018216806125ab57607f821691505b602082108114156125bf576125be612564565b5b50919050565b7f4e487b7100000000000000000000000000000000000000000000000000000000600052603260045260246000fd5b7f4e487b7100000000000000000000000000000000000000000000000000000000600052601160045260246000fd5b600061262e82611d43565b91507fffffffffffffffffffffffffffffffffffffffffffffffffffffffffffffffff821415612661576126606125f4565b5b600182019050919050565b7f596f75206861766520746f2073656e642061746c656173742031204554480000600082015250565b60006126a2601e83611df2565b91506126ad8261266c565b602082019050919050565b600060208201905081810360008301526126d181612695565b9050919050565b7f4f6e6c79206f776e65722063616e2072656d6f76652061646d696e0000000000600082015250565b600061270e601b83611df2565b9150612719826126d8565b602082019050919050565b6000602082019050818103600083015261273d81612701565b9050919050565b7f4f6e6c792041646d696e732063616e2064656c657465206f746865722075736560008201527f72732066696c6573000000000000000000000000000000000000000000000000602082015250565b60006127a0602883611df2565b91506127ab82612744565b604082019050919050565b600060208201905081810360008301526127cf81612793565b9050919050565b7f4f6e6c79206f776e65722063616e2061646420616e6f746865722061646d696e600082015250565b600061280c602083611df2565b9150612817826127d6565b602082019050919050565b6000602082019050818103600083015261283b816127ff565b905091905056fea26469706673582212204146e4205e6b1855d0f94a999742a16e404eac635ab1b600e12fee36afd7e16864736f6c63430008090033",
  "linkReferences": {},
  "deployedLinkReferences": {}
}