{
  "_format": "hh-sol-artifact-1",
  "contractName": "HealthNet",
  "sourceName": "contracts/HealthNet.sol",
  "abi": [
    {
      "inputs": [],
      "stateMutability": "nonpayable",
      "type": "constructor"
    },
    {
      "inputs": [
        {
          "internalType": "address payable[]",
          "name": "_addr",
          "type": "address[]"
        }
      ],
      "name": "addDoctor",
      "outputs": [],
      "stateMutability": "payable",
      "type": "function"
    },
    {
      "inputs": [
        {
          "internalType": "address",
          "name": "_addr",
          "type": "address"
        },
        {
          "internalType": "string",
          "name": "_location",
          "type": "string"
        }
      ],
      "name": "addHospital",
      "outputs": [],
      "stateMutability": "nonpayable",
      "type": "function"
    },
    {
      "inputs": [],
      "name": "doctorCount",
      "outputs": [
        {
          "internalType": "uint256",
          "name": "",
          "type": "uint256"
        }
      ],
      "stateMutability": "view",
      "type": "function"
    },
    {
      "inputs": [
        {
          "internalType": "uint256",
          "name": "",
          "type": "uint256"
        }
      ],
      "name": "doctors",
      "outputs": [
        {
          "internalType": "address payable",
          "name": "",
          "type": "address"
        }
      ],
      "stateMutability": "view",
      "type": "function"
    },
    {
      "inputs": [
        {
          "internalType": "address",
          "name": "_addr",
          "type": "address"
        },
        {
          "internalType": "string",
          "name": "_link",
          "type": "string"
        }
      ],
      "name": "editReport",
      "outputs": [],
      "stateMutability": "nonpayable",
      "type": "function"
    },
    {
      "inputs": [],
      "name": "hospitalCount",
      "outputs": [
        {
          "internalType": "uint256",
          "name": "",
          "type": "uint256"
        }
      ],
      "stateMutability": "view",
      "type": "function"
    },
    {
      "inputs": [
        {
          "internalType": "uint256",
          "name": "",
          "type": "uint256"
        }
      ],
      "name": "hospitals",
      "outputs": [
        {
          "internalType": "address",
          "name": "addr",
          "type": "address"
        },
        {
          "internalType": "string",
          "name": "location",
          "type": "string"
        }
      ],
      "stateMutability": "view",
      "type": "function"
    },
    {
      "inputs": [
        {
          "internalType": "address",
          "name": "_addr",
          "type": "address"
        }
      ],
      "name": "isDoctor",
      "outputs": [
        {
          "internalType": "bool",
          "name": "",
          "type": "bool"
        }
      ],
      "stateMutability": "view",
      "type": "function"
    },
    {
      "inputs": [
        {
          "internalType": "address",
          "name": "_addr",
          "type": "address"
        }
      ],
      "name": "isHospital",
      "outputs": [
        {
          "internalType": "bool",
          "name": "",
          "type": "bool"
        }
      ],
      "stateMutability": "view",
      "type": "function"
    },
    {
      "inputs": [],
      "name": "owner",
      "outputs": [
        {
          "internalType": "address",
          "name": "",
          "type": "address"
        }
      ],
      "stateMutability": "view",
      "type": "function"
    },
    {
      "inputs": [],
      "name": "reportCount",
      "outputs": [
        {
          "internalType": "uint256",
          "name": "",
          "type": "uint256"
        }
      ],
      "stateMutability": "view",
      "type": "function"
    },
    {
      "inputs": [
        {
          "internalType": "address",
          "name": "",
          "type": "address"
        }
      ],
      "name": "reportUserMap",
      "outputs": [
        {
          "internalType": "uint256",
          "name": "",
          "type": "uint256"
        }
      ],
      "stateMutability": "view",
      "type": "function"
    },
    {
      "inputs": [
        {
          "internalType": "uint256",
          "name": "",
          "type": "uint256"
        }
      ],
      "name": "reports",
      "outputs": [
        {
          "internalType": "string",
          "name": "link",
          "type": "string"
        },
        {
          "internalType": "address",
          "name": "user",
          "type": "address"
        },
        {
          "internalType": "uint256",
          "name": "prevIdx",
          "type": "uint256"
        }
      ],
      "stateMutability": "view",
      "type": "function"
    }
  ],
  "bytecode": "0x60806040526000600155600060035560006005553480156200002057600080fd5b50336000806101000a81548173ffffffffffffffffffffffffffffffffffffffff021916908373ffffffffffffffffffffffffffffffffffffffff1602179055506200006b6200016c565b6000816020019073ffffffffffffffffffffffffffffffffffffffff16908173ffffffffffffffffffffffffffffffffffffffff168152505060405180602001604052806000815250816000018190525060008160400181815250506006819080600181540180825580915050600190039060005260206000209060030201600090919091909150600082015181600001908051906020019062000111929190620001a3565b5060208201518160010160006101000a81548173ffffffffffffffffffffffffffffffffffffffff021916908373ffffffffffffffffffffffffffffffffffffffff16021790555060408201518160020155505050620002b8565b604051806060016040528060608152602001600073ffffffffffffffffffffffffffffffffffffffff168152602001600081525090565b828054620001b19062000282565b90600052602060002090601f016020900481019282620001d5576000855562000221565b82601f10620001f057805160ff191683800117855562000221565b8280016001018555821562000221579182015b828111156200022057825182559160200191906001019062000203565b5b50905062000230919062000234565b5090565b5b808211156200024f57600081600090555060010162000235565b5090565b7f4e487b7100000000000000000000000000000000000000000000000000000000600052602260045260246000fd5b600060028204905060018216806200029b57607f821691505b60208210811415620002b257620002b162000253565b5b50919050565b61148380620002c86000396000f3fe6080604052600436106100c25760003560e01c80638012fbd91161007f578063996440c611610059578063996440c614610270578063bdf6c673146102ad578063c72a6a6d146102ea578063c942adf714610313576100c2565b80638012fbd9146101ca57806381dc6fd2146102075780638da5cb5b14610245576100c2565b8063185c6f84146100c75780632f53b8fb146100f2578063350dadb71461010e578063457bcea9146101395780636efb1b841461016257806378522bc41461019f575b600080fd5b3480156100d357600080fd5b506100dc610352565b6040516100e99190610c8e565b60405180910390f35b61010c60048036038101906101079190610d22565b610358565b005b34801561011a57600080fd5b506101236104be565b6040516101309190610c8e565b60405180910390f35b34801561014557600080fd5b50610160600480360381019061015b9190610f0e565b6104c4565b005b34801561016e57600080fd5b5061018960048036038101906101849190610f96565b61062a565b6040516101969190610fe4565b60405180910390f35b3480156101ab57600080fd5b506101b4610669565b6040516101c19190610c8e565b60405180910390f35b3480156101d657600080fd5b506101f160048036038101906101ec9190610fff565b61066f565b6040516101fe9190610c8e565b60405180910390f35b34801561021357600080fd5b5061022e60048036038101906102299190610f96565b610687565b60405161023c9291906110c3565b60405180910390f35b34801561025157600080fd5b5061025a610763565b60405161026791906110f3565b60405180910390f35b34801561027c57600080fd5b5061029760048036038101906102929190610fff565b610787565b6040516102a49190611129565b60405180910390f35b3480156102b957600080fd5b506102d460048036038101906102cf9190610fff565b610833565b6040516102e19190611129565b60405180910390f35b3480156102f657600080fd5b50610311600480360381019061030c9190610f0e565b6108e6565b005b34801561031f57600080fd5b5061033a60048036038101906103359190610f96565b610ab9565b60405161034993929190611144565b60405180910390f35b60055481565b3373ffffffffffffffffffffffffffffffffffffffff1660008054906101000a900473ffffffffffffffffffffffffffffffffffffffff1673ffffffffffffffffffffffffffffffffffffffff1614806103b757506103b633610833565b5b6103f6576040517f08c379a00000000000000000000000000000000000000000000000000000000081526004016103ed906111f4565b60405180910390fd5b60005b828290508110156104b9576003600081548092919061041790611243565b919050555060048383838181106104315761043061128c565b5b905060200201602081019061044691906112e7565b9080600181540180825580915050600190039060005260206000200160009091909190916101000a81548173ffffffffffffffffffffffffffffffffffffffff021916908373ffffffffffffffffffffffffffffffffffffffff16021790555080806104b190611243565b9150506103f9565b505050565b60015481565b3373ffffffffffffffffffffffffffffffffffffffff1660008054906101000a900473ffffffffffffffffffffffffffffffffffffffff1673ffffffffffffffffffffffffffffffffffffffff1614610552576040517f08c379a000000000000000000000000000000000000000000000000000000000815260040161054990611360565b60405180910390fd5b6001600081548092919061056590611243565b9190505550600260405180604001604052808473ffffffffffffffffffffffffffffffffffffffff16815260200183815250908060018154018082558091505060019003906000526020600020906002020160009091909190915060008201518160000160006101000a81548173ffffffffffffffffffffffffffffffffffffffff021916908373ffffffffffffffffffffffffffffffffffffffff1602179055506020820151816001019080519060200190610623929190610b9b565b5050505050565b6004818154811061063a57600080fd5b906000526020600020016000915054906101000a900473ffffffffffffffffffffffffffffffffffffffff1681565b60035481565b60076020528060005260406000206000915090505481565b6002818154811061069757600080fd5b90600052602060002090600202016000915090508060000160009054906101000a900473ffffffffffffffffffffffffffffffffffffffff16908060010180546106e0906113af565b80601f016020809104026020016040519081016040528092919081815260200182805461070c906113af565b80156107595780601f1061072e57610100808354040283529160200191610759565b820191906000526020600020905b81548152906001019060200180831161073c57829003601f168201915b5050505050905082565b60008054906101000a900473ffffffffffffffffffffffffffffffffffffffff1681565b600080600090505b60035481101561082857600481815481106107ad576107ac61128c565b5b9060005260206000200160009054906101000a900473ffffffffffffffffffffffffffffffffffffffff1673ffffffffffffffffffffffffffffffffffffffff168373ffffffffffffffffffffffffffffffffffffffff16141561081557600191505061082e565b808061082090611243565b91505061078f565b50600090505b919050565b600080600090505b6001548110156108db57600281815481106108595761085861128c565b5b906000526020600020906002020160000160009054906101000a900473ffffffffffffffffffffffffffffffffffffffff1673ffffffffffffffffffffffffffffffffffffffff168373ffffffffffffffffffffffffffffffffffffffff1614156108c85760019150506108e1565b80806108d390611243565b91505061083b565b50600090505b919050565b6108ef33610787565b61092e576040517f08c379a00000000000000000000000000000000000000000000000000000000081526004016109259061142d565b60405180910390fd5b610936610c21565b82816020019073ffffffffffffffffffffffffffffffffffffffff16908173ffffffffffffffffffffffffffffffffffffffff1681525050818160000181905250600760008473ffffffffffffffffffffffffffffffffffffffff1673ffffffffffffffffffffffffffffffffffffffff1681526020019081526020016000205481604001818152505060068190806001815401808255809150506001900390600052602060002090600302016000909190919091506000820151816000019080519060200190610a08929190610b9b565b5060208201518160010160006101000a81548173ffffffffffffffffffffffffffffffffffffffff021916908373ffffffffffffffffffffffffffffffffffffffff160217905550604082015181600201555050600560008154610a6b90611243565b919050819055600760008573ffffffffffffffffffffffffffffffffffffffff1673ffffffffffffffffffffffffffffffffffffffff16815260200190815260200160002081905550505050565b60068181548110610ac957600080fd5b9060005260206000209060030201600091509050806000018054610aec906113af565b80601f0160208091040260200160405190810160405280929190818152602001828054610b18906113af565b8015610b655780601f10610b3a57610100808354040283529160200191610b65565b820191906000526020600020905b815481529060010190602001808311610b4857829003601f168201915b5050505050908060010160009054906101000a900473ffffffffffffffffffffffffffffffffffffffff16908060020154905083565b828054610ba7906113af565b90600052602060002090601f016020900481019282610bc95760008555610c10565b82601f10610be257805160ff1916838001178555610c10565b82800160010185558215610c10579182015b82811115610c0f578251825591602001919060010190610bf4565b5b509050610c1d9190610c58565b5090565b604051806060016040528060608152602001600073ffffffffffffffffffffffffffffffffffffffff168152602001600081525090565b5b80821115610c71576000816000905550600101610c59565b5090565b6000819050919050565b610c8881610c75565b82525050565b6000602082019050610ca36000830184610c7f565b92915050565b6000604051905090565b600080fd5b600080fd5b600080fd5b600080fd5b600080fd5b60008083601f840112610ce257610ce1610cbd565b5b8235905067ffffffffffffffff811115610cff57610cfe610cc2565b5b602083019150836020820283011115610d1b57610d1a610cc7565b5b9250929050565b60008060208385031215610d3957610d38610cb3565b5b600083013567ffffffffffffffff811115610d5757610d56610cb8565b5b610d6385828601610ccc565b92509250509250929050565b600073ffffffffffffffffffffffffffffffffffffffff82169050919050565b6000610d9a82610d6f565b9050919050565b610daa81610d8f565b8114610db557600080fd5b50565b600081359050610dc781610da1565b92915050565b600080fd5b6000601f19601f8301169050919050565b7f4e487b7100000000000000000000000000000000000000000000000000000000600052604160045260246000fd5b610e1b82610dd2565b810181811067ffffffffffffffff82111715610e3a57610e39610de3565b5b80604052505050565b6000610e4d610ca9565b9050610e598282610e12565b919050565b600067ffffffffffffffff821115610e7957610e78610de3565b5b610e8282610dd2565b9050602081019050919050565b82818337600083830152505050565b6000610eb1610eac84610e5e565b610e43565b905082815260208101848484011115610ecd57610ecc610dcd565b5b610ed8848285610e8f565b509392505050565b600082601f830112610ef557610ef4610cbd565b5b8135610f05848260208601610e9e565b91505092915050565b60008060408385031215610f2557610f24610cb3565b5b6000610f3385828601610db8565b925050602083013567ffffffffffffffff811115610f5457610f53610cb8565b5b610f6085828601610ee0565b9150509250929050565b610f7381610c75565b8114610f7e57600080fd5b50565b600081359050610f9081610f6a565b92915050565b600060208284031215610fac57610fab610cb3565b5b6000610fba84828501610f81565b91505092915050565b6000610fce82610d6f565b9050919050565b610fde81610fc3565b82525050565b6000602082019050610ff96000830184610fd5565b92915050565b60006020828403121561101557611014610cb3565b5b600061102384828501610db8565b91505092915050565b61103581610d8f565b82525050565b600081519050919050565b600082825260208201905092915050565b60005b8381101561107557808201518184015260208101905061105a565b83811115611084576000848401525b50505050565b60006110958261103b565b61109f8185611046565b93506110af818560208601611057565b6110b881610dd2565b840191505092915050565b60006040820190506110d8600083018561102c565b81810360208301526110ea818461108a565b90509392505050565b6000602082019050611108600083018461102c565b92915050565b60008115159050919050565b6111238161110e565b82525050565b600060208201905061113e600083018461111a565b92915050565b6000606082019050818103600083015261115e818661108a565b905061116d602083018561102c565b61117a6040830184610c7f565b949350505050565b7f4f6e6c79204f776e6572206f7220486f73706974616c2063616e20616464206860008201527f6f73706974616c00000000000000000000000000000000000000000000000000602082015250565b60006111de602783611046565b91506111e982611182565b604082019050919050565b6000602082019050818103600083015261120d816111d1565b9050919050565b7f4e487b7100000000000000000000000000000000000000000000000000000000600052601160045260246000fd5b600061124e82610c75565b91507fffffffffffffffffffffffffffffffffffffffffffffffffffffffffffffffff82141561128157611280611214565b5b600182019050919050565b7f4e487b7100000000000000000000000000000000000000000000000000000000600052603260045260246000fd5b6112c481610fc3565b81146112cf57600080fd5b50565b6000813590506112e1816112bb565b92915050565b6000602082840312156112fd576112fc610cb3565b5b600061130b848285016112d2565b91505092915050565b7f4f6e6c79204f776e65722063616e2061646420686f73706974616c0000000000600082015250565b600061134a601b83611046565b915061135582611314565b602082019050919050565b600060208201905081810360008301526113798161133d565b9050919050565b7f4e487b7100000000000000000000000000000000000000000000000000000000600052602260045260246000fd5b600060028204905060018216806113c757607f821691505b602082108114156113db576113da611380565b5b50919050565b7f4f6e6c79206120646f63746f722063616e206368616e6765207265706f727400600082015250565b6000611417601f83611046565b9150611422826113e1565b602082019050919050565b600060208201905081810360008301526114468161140a565b905091905056fea26469706673582212201057c74766df38da9647c054bcc5833d968db509a04c386bcb48bfee59fef06b64736f6c63430008090033",
  "linkReferences": {},
  "deployedLinkReferences": {}
}