{
  "_format": "hh-sol-artifact-1",
  "contractName": "HealthNet",
  "sourceName": "contracts/HealthNet.sol",
  "abi": [
    {
      "inputs": [],
      "stateMutability": "nonpayable",
      "type": "constructor"
    },
    {
      "inputs": [
        {
          "internalType": "address payable[]",
          "name": "_addr",
          "type": "address[]"
        }
      ],
      "name": "addDoctor",
      "outputs": [],
      "stateMutability": "payable",
      "type": "function"
    },
    {
      "inputs": [
        {
          "internalType": "address",
          "name": "_addr",
          "type": "address"
        },
        {
          "internalType": "string",
          "name": "_location",
          "type": "string"
        }
      ],
      "name": "addHospital",
      "outputs": [],
      "stateMutability": "nonpayable",
      "type": "function"
    },
    {
      "inputs": [
        {
          "internalType": "uint256",
          "name": "",
          "type": "uint256"
        }
      ],
      "name": "doctors",
      "outputs": [
        {
          "internalType": "address payable",
          "name": "",
          "type": "address"
        }
      ],
      "stateMutability": "view",
      "type": "function"
    },
    {
      "inputs": [
        {
          "internalType": "address",
          "name": "_addr",
          "type": "address"
        },
        {
          "internalType": "string",
          "name": "_link",
          "type": "string"
        }
      ],
      "name": "editReport",
      "outputs": [],
      "stateMutability": "nonpayable",
      "type": "function"
    },
    {
      "inputs": [
        {
          "internalType": "uint256",
          "name": "",
          "type": "uint256"
        }
      ],
      "name": "hospitals",
      "outputs": [
        {
          "internalType": "address",
          "name": "addr",
          "type": "address"
        },
        {
          "internalType": "string",
          "name": "location",
          "type": "string"
        }
      ],
      "stateMutability": "view",
      "type": "function"
    },
    {
      "inputs": [
        {
          "internalType": "address",
          "name": "_addr",
          "type": "address"
        }
      ],
      "name": "isDoctor",
      "outputs": [
        {
          "internalType": "bool",
          "name": "",
          "type": "bool"
        }
      ],
      "stateMutability": "view",
      "type": "function"
    },
    {
      "inputs": [
        {
          "internalType": "address",
          "name": "_addr",
          "type": "address"
        }
      ],
      "name": "isHospital",
      "outputs": [
        {
          "internalType": "bool",
          "name": "",
          "type": "bool"
        }
      ],
      "stateMutability": "view",
      "type": "function"
    },
    {
      "inputs": [],
      "name": "owner",
      "outputs": [
        {
          "internalType": "address",
          "name": "",
          "type": "address"
        }
      ],
      "stateMutability": "view",
      "type": "function"
    },
    {
      "inputs": [],
      "name": "reportCount",
      "outputs": [
        {
          "internalType": "uint256",
          "name": "",
          "type": "uint256"
        }
      ],
      "stateMutability": "view",
      "type": "function"
    },
    {
      "inputs": [
        {
          "internalType": "address",
          "name": "",
          "type": "address"
        }
      ],
      "name": "reportUserMap",
      "outputs": [
        {
          "internalType": "uint256",
          "name": "",
          "type": "uint256"
        }
      ],
      "stateMutability": "view",
      "type": "function"
    },
    {
      "inputs": [
        {
          "internalType": "uint256",
          "name": "",
          "type": "uint256"
        }
      ],
      "name": "reports",
      "outputs": [
        {
          "internalType": "string",
          "name": "link",
          "type": "string"
        },
        {
          "internalType": "address",
          "name": "user",
          "type": "address"
        },
        {
          "internalType": "uint256",
          "name": "prevIdx",
          "type": "uint256"
        }
      ],
      "stateMutability": "view",
      "type": "function"
    }
  ],
  "bytecode": "0x60806040526000600155600060035560006005553480156200002057600080fd5b50336000806101000a81548173ffffffffffffffffffffffffffffffffffffffff021916908373ffffffffffffffffffffffffffffffffffffffff1602179055506200006b6200016c565b6000816020019073ffffffffffffffffffffffffffffffffffffffff16908173ffffffffffffffffffffffffffffffffffffffff168152505060405180602001604052806000815250816000018190525060008160400181815250506006819080600181540180825580915050600190039060005260206000209060030201600090919091909150600082015181600001908051906020019062000111929190620001a3565b5060208201518160010160006101000a81548173ffffffffffffffffffffffffffffffffffffffff021916908373ffffffffffffffffffffffffffffffffffffffff16021790555060408201518160020155505050620002b8565b604051806060016040528060608152602001600073ffffffffffffffffffffffffffffffffffffffff168152602001600081525090565b828054620001b19062000282565b90600052602060002090601f016020900481019282620001d5576000855562000221565b82601f10620001f057805160ff191683800117855562000221565b8280016001018555821562000221579182015b828111156200022057825182559160200191906001019062000203565b5b50905062000230919062000234565b5090565b5b808211156200024f57600081600090555060010162000235565b5090565b7f4e487b7100000000000000000000000000000000000000000000000000000000600052602260045260246000fd5b600060028204905060018216806200029b57607f821691505b60208210811415620002b257620002b162000253565b5b50919050565b6113fb80620002c86000396000f3fe60806040526004361061009c5760003560e01c806381dc6fd21161006457806381dc6fd21461018b5780638da5cb5b146101c9578063996440c6146101f4578063bdf6c67314610231578063c72a6a6d1461026e578063c942adf7146102975761009c565b8063185c6f84146100a15780632f53b8fb146100cc578063457bcea9146100e85780636efb1b84146101115780638012fbd91461014e575b600080fd5b3480156100ad57600080fd5b506100b66102d6565b6040516100c39190610c06565b60405180910390f35b6100e660048036038101906100e19190610c9a565b6102dc565b005b3480156100f457600080fd5b5061010f600480360381019061010a9190610e86565b610442565b005b34801561011d57600080fd5b5061013860048036038101906101339190610f0e565b6105a8565b6040516101459190610f5c565b60405180910390f35b34801561015a57600080fd5b5061017560048036038101906101709190610f77565b6105e7565b6040516101829190610c06565b60405180910390f35b34801561019757600080fd5b506101b260048036038101906101ad9190610f0e565b6105ff565b6040516101c092919061103b565b60405180910390f35b3480156101d557600080fd5b506101de6106db565b6040516101eb919061106b565b60405180910390f35b34801561020057600080fd5b5061021b60048036038101906102169190610f77565b6106ff565b60405161022891906110a1565b60405180910390f35b34801561023d57600080fd5b5061025860048036038101906102539190610f77565b6107ab565b60405161026591906110a1565b60405180910390f35b34801561027a57600080fd5b5061029560048036038101906102909190610e86565b61085e565b005b3480156102a357600080fd5b506102be60048036038101906102b99190610f0e565b610a31565b6040516102cd939291906110bc565b60405180910390f35b60055481565b3373ffffffffffffffffffffffffffffffffffffffff1660008054906101000a900473ffffffffffffffffffffffffffffffffffffffff1673ffffffffffffffffffffffffffffffffffffffff16148061033b575061033a336107ab565b5b61037a576040517f08c379a00000000000000000000000000000000000000000000000000000000081526004016103719061116c565b60405180910390fd5b60005b8282905081101561043d576003600081548092919061039b906111bb565b919050555060048383838181106103b5576103b4611204565b5b90506020020160208101906103ca919061125f565b9080600181540180825580915050600190039060005260206000200160009091909190916101000a81548173ffffffffffffffffffffffffffffffffffffffff021916908373ffffffffffffffffffffffffffffffffffffffff1602179055508080610435906111bb565b91505061037d565b505050565b3373ffffffffffffffffffffffffffffffffffffffff1660008054906101000a900473ffffffffffffffffffffffffffffffffffffffff1673ffffffffffffffffffffffffffffffffffffffff16146104d0576040517f08c379a00000000000000000000000000000000000000000000000000000000081526004016104c7906112d8565b60405180910390fd5b600160008154809291906104e3906111bb565b9190505550600260405180604001604052808473ffffffffffffffffffffffffffffffffffffffff16815260200183815250908060018154018082558091505060019003906000526020600020906002020160009091909190915060008201518160000160006101000a81548173ffffffffffffffffffffffffffffffffffffffff021916908373ffffffffffffffffffffffffffffffffffffffff16021790555060208201518160010190805190602001906105a1929190610b13565b5050505050565b600481815481106105b857600080fd5b906000526020600020016000915054906101000a900473ffffffffffffffffffffffffffffffffffffffff1681565b60076020528060005260406000206000915090505481565b6002818154811061060f57600080fd5b90600052602060002090600202016000915090508060000160009054906101000a900473ffffffffffffffffffffffffffffffffffffffff169080600101805461065890611327565b80601f016020809104026020016040519081016040528092919081815260200182805461068490611327565b80156106d15780601f106106a6576101008083540402835291602001916106d1565b820191906000526020600020905b8154815290600101906020018083116106b457829003601f168201915b5050505050905082565b60008054906101000a900473ffffffffffffffffffffffffffffffffffffffff1681565b600080600090505b6003548110156107a0576004818154811061072557610724611204565b5b9060005260206000200160009054906101000a900473ffffffffffffffffffffffffffffffffffffffff1673ffffffffffffffffffffffffffffffffffffffff168373ffffffffffffffffffffffffffffffffffffffff16141561078d5760019150506107a6565b8080610798906111bb565b915050610707565b50600090505b919050565b600080600090505b60015481101561085357600281815481106107d1576107d0611204565b5b906000526020600020906002020160000160009054906101000a900473ffffffffffffffffffffffffffffffffffffffff1673ffffffffffffffffffffffffffffffffffffffff168373ffffffffffffffffffffffffffffffffffffffff161415610840576001915050610859565b808061084b906111bb565b9150506107b3565b50600090505b919050565b610867336106ff565b6108a6576040517f08c379a000000000000000000000000000000000000000000000000000000000815260040161089d906113a5565b60405180910390fd5b6108ae610b99565b82816020019073ffffffffffffffffffffffffffffffffffffffff16908173ffffffffffffffffffffffffffffffffffffffff1681525050818160000181905250600760008473ffffffffffffffffffffffffffffffffffffffff1673ffffffffffffffffffffffffffffffffffffffff1681526020019081526020016000205481604001818152505060068190806001815401808255809150506001900390600052602060002090600302016000909190919091506000820151816000019080519060200190610980929190610b13565b5060208201518160010160006101000a81548173ffffffffffffffffffffffffffffffffffffffff021916908373ffffffffffffffffffffffffffffffffffffffff1602179055506040820151816002015550506005600081546109e3906111bb565b919050819055600760008573ffffffffffffffffffffffffffffffffffffffff1673ffffffffffffffffffffffffffffffffffffffff16815260200190815260200160002081905550505050565b60068181548110610a4157600080fd5b9060005260206000209060030201600091509050806000018054610a6490611327565b80601f0160208091040260200160405190810160405280929190818152602001828054610a9090611327565b8015610add5780601f10610ab257610100808354040283529160200191610add565b820191906000526020600020905b815481529060010190602001808311610ac057829003601f168201915b5050505050908060010160009054906101000a900473ffffffffffffffffffffffffffffffffffffffff16908060020154905083565b828054610b1f90611327565b90600052602060002090601f016020900481019282610b415760008555610b88565b82601f10610b5a57805160ff1916838001178555610b88565b82800160010185558215610b88579182015b82811115610b87578251825591602001919060010190610b6c565b5b509050610b959190610bd0565b5090565b604051806060016040528060608152602001600073ffffffffffffffffffffffffffffffffffffffff168152602001600081525090565b5b80821115610be9576000816000905550600101610bd1565b5090565b6000819050919050565b610c0081610bed565b82525050565b6000602082019050610c1b6000830184610bf7565b92915050565b6000604051905090565b600080fd5b600080fd5b600080fd5b600080fd5b600080fd5b60008083601f840112610c5a57610c59610c35565b5b8235905067ffffffffffffffff811115610c7757610c76610c3a565b5b602083019150836020820283011115610c9357610c92610c3f565b5b9250929050565b60008060208385031215610cb157610cb0610c2b565b5b600083013567ffffffffffffffff811115610ccf57610cce610c30565b5b610cdb85828601610c44565b92509250509250929050565b600073ffffffffffffffffffffffffffffffffffffffff82169050919050565b6000610d1282610ce7565b9050919050565b610d2281610d07565b8114610d2d57600080fd5b50565b600081359050610d3f81610d19565b92915050565b600080fd5b6000601f19601f8301169050919050565b7f4e487b7100000000000000000000000000000000000000000000000000000000600052604160045260246000fd5b610d9382610d4a565b810181811067ffffffffffffffff82111715610db257610db1610d5b565b5b80604052505050565b6000610dc5610c21565b9050610dd18282610d8a565b919050565b600067ffffffffffffffff821115610df157610df0610d5b565b5b610dfa82610d4a565b9050602081019050919050565b82818337600083830152505050565b6000610e29610e2484610dd6565b610dbb565b905082815260208101848484011115610e4557610e44610d45565b5b610e50848285610e07565b509392505050565b600082601f830112610e6d57610e6c610c35565b5b8135610e7d848260208601610e16565b91505092915050565b60008060408385031215610e9d57610e9c610c2b565b5b6000610eab85828601610d30565b925050602083013567ffffffffffffffff811115610ecc57610ecb610c30565b5b610ed885828601610e58565b9150509250929050565b610eeb81610bed565b8114610ef657600080fd5b50565b600081359050610f0881610ee2565b92915050565b600060208284031215610f2457610f23610c2b565b5b6000610f3284828501610ef9565b91505092915050565b6000610f4682610ce7565b9050919050565b610f5681610f3b565b82525050565b6000602082019050610f716000830184610f4d565b92915050565b600060208284031215610f8d57610f8c610c2b565b5b6000610f9b84828501610d30565b91505092915050565b610fad81610d07565b82525050565b600081519050919050565b600082825260208201905092915050565b60005b83811015610fed578082015181840152602081019050610fd2565b83811115610ffc576000848401525b50505050565b600061100d82610fb3565b6110178185610fbe565b9350611027818560208601610fcf565b61103081610d4a565b840191505092915050565b60006040820190506110506000830185610fa4565b81810360208301526110628184611002565b90509392505050565b60006020820190506110806000830184610fa4565b92915050565b60008115159050919050565b61109b81611086565b82525050565b60006020820190506110b66000830184611092565b92915050565b600060608201905081810360008301526110d68186611002565b90506110e56020830185610fa4565b6110f26040830184610bf7565b949350505050565b7f4f6e6c79204f776e6572206f7220486f73706974616c2063616e20616464206860008201527f6f73706974616c00000000000000000000000000000000000000000000000000602082015250565b6000611156602783610fbe565b9150611161826110fa565b604082019050919050565b6000602082019050818103600083015261118581611149565b9050919050565b7f4e487b7100000000000000000000000000000000000000000000000000000000600052601160045260246000fd5b60006111c682610bed565b91507fffffffffffffffffffffffffffffffffffffffffffffffffffffffffffffffff8214156111f9576111f861118c565b5b600182019050919050565b7f4e487b7100000000000000000000000000000000000000000000000000000000600052603260045260246000fd5b61123c81610f3b565b811461124757600080fd5b50565b60008135905061125981611233565b92915050565b60006020828403121561127557611274610c2b565b5b60006112838482850161124a565b91505092915050565b7f4f6e6c79204f776e65722063616e2061646420686f73706974616c0000000000600082015250565b60006112c2601b83610fbe565b91506112cd8261128c565b602082019050919050565b600060208201905081810360008301526112f1816112b5565b9050919050565b7f4e487b7100000000000000000000000000000000000000000000000000000000600052602260045260246000fd5b6000600282049050600182168061133f57607f821691505b60208210811415611353576113526112f8565b5b50919050565b7f4f6e6c79206120646f63746f722063616e206368616e6765207265706f727400600082015250565b600061138f601f83610fbe565b915061139a82611359565b602082019050919050565b600060208201905081810360008301526113be81611382565b905091905056fea264697066735822122079114c7130638ae7c13f109bcdbcb1e8f7478a56850eda241fc6f85b0aa8b9c964736f6c63430008090033",
  "linkReferences": {},
  "deployedLinkReferences": {}
}